:060000000A128A11D32E42
:100DA60083010A128A11042F831203138C1EDC2E70
:100DB600DD2ED72E1A08F00070080800F100831205
:100DC60003130C1EE72EE82EE22E71089900080088
:100DD600813083160313990018159816831203138E
:100DE60018169817031000300318013083160313E2
:100DF60088000310003003180130831203138800A3
:100E060008000A128A11EB260A128A110A128A119E
:100E1600D7260A128A11F00070086F3A031D142FA4
:100E2600152F092F0A128A11D7260A128A11F000E5
:100E360070086B3A031D202F212F092F43300A1209
:100E46008A11E1260A128A1179300A128A11E126DC
:100E56000A128A1174300A128A11E1260A128A11BC
:100E660072300A128A11E1260A128A116F300A12AA
:100E76008A11E1260A128A116E300A128A11E126B7
:100E86000A128A110A300A128A11E1260A128A11F6
:100E96000D300A128A11E1260A128A1150300A12FE
:100EA6008A11E1260A128A1172300A128A11E12683
:100EB6000A128A1165300A128A11E1260A128A116B
:100EC60073300A128A11E1260A128A1173300A1245
:100ED6008A11E1260A128A1120300A128A11E126A5
:100EE6000A128A1161300A128A11E1260A128A113F
:100EF6006E300A128A11E1260A128A1179300A1214
:100F06008A11E1260A128A1120300A128A11E12674
:100F16000A128A116E300A128A11E1260A128A1101
:100F260075300A128A11E1260A128A116D300A12E8
:100F36008A11E1260A128A1162300A128A11E12602
:100F46000A128A1165300A128A11E1260A128A11DA
:100F560072300A128A11E1260A128A1101308312AE
:100F6600031388000A128A11D7260A128A11F00082
:100F76007008313A0319C02FC12FF72F7008323A83
:100F86000319C62FC72FF72F7008333A0319CC2F32
:100F9600CD2FF72F7008343A0319D22FD32FF72FFE
:100FA6007008353A0319D82FD92FF72F7008363A1B
:100FB6000319DE2FDF2FF72F7008373A0319E42FB6
:100FC600E52FF72F7008383A0319EA2FEB2FF72F82
:100FD6007008393A0319F02FF12FF72F7008303ABD
:100FE600031DF62FF72FB52F7008D03E831203137B
:0A0FF6008800B52F0A128A110028A6
:02400E00323F3F
:00000001FF
