:060000000A128A11FC2F18
:100DE800F000831203130C1EF52E700899000800FA
:100DF800831203138C1EFC2E1A08F0007008F200F0
:100E0800720808000A3083160313990018159816FB
:100E18008312031318169817831603138801831275
:100E28000313880108000A128A1106270A128A1178
:100E38000A128A11FC260A128A11F1007108F200BE
:100E48006F307206031D1C2F0A128A11FC260A1223
:100E58008A11F1007108F2006B307206031D1C2F15
:100E680043300A128A11F4260A128A1179300A12BA
:100E78008A11F4260A128A1174300A128A11F42689
:100E88000A128A1172300A128A11F4260A128A1179
:100E98006F300A128A11F4260A128A116E300A1269
:100EA8008A11F4260A128A110A300A128A11F426C3
:100EB8000A128A110D300A128A11F4260A128A11AE
:100EC80050300A128A11F4260A128A1172300A1254
:100ED8008A11F4260A128A1165300A128A11F42638
:100EE8000A128A1173300A128A11F4260A128A1118
:100EF80073300A128A11F4260A128A1120300A1253
:100F08008A11F4260A128A1161300A128A11F4260B
:100F18000A128A116E300A128A11F4260A128A11EC
:100F280079300A128A11F4260A128A1120300A121C
:100F38008A11F4260A128A116E300A128A11F426CE
:100F48000A128A1175300A128A11F4260A128A11B5
:100F58006D300A128A11F4260A128A1162300A12B6
:100F68008A11F4260A128A1165300A128A11F426A7
:100F78000A128A1172300A128A11F4260A128A1188
:100F88000130F82F323072060319F62F333072060B
:100F98000319F62F343072060319F62F353072060E
:100FA8000319F62F363072060319F62F37307206FA
:100FB8000319F62F383072060319F62F39307206E6
:100FC8000319F62F303072060319F62F0A128A1108
:100FD800FC260A128A11F1007108F20031307206FB
:100FE800031DC62F7208D03E831203138800EA2F10
:080FF80083010A128A11172F70
:02400E0032FF7F
:00000001FF
