:060000000A128A11C42E51
:100D880083010A128A11F42EF000CA2E831203136B
:100D98000C1ECF2ED02ECA2ED12E70089900080016
:100DA800D52E831203138C1EDA2EDB2ED52EDC2EC5
:100DB8001A08F0007008F2007208E22E080081306C
:100DC800831603139900181598168312031318161F
:100DD80098178316031388018312031388010800E8
:100DE8000A128A11E3260A128A11FA2E0A128A11A5
:100DF800D4260A128A11F1007108F20072086F3ABB
:100E0800031D072F082FFA2E0A128A11D4260A1258
:100E18008A11F1007108F20072086B3A031D152F50
:100E2800162FFA2E1B2F1B2FFA2EFA2EFA2E4330CE
:100E38000A128A11C8260A128A1179300A128A11EE
:100E4800C8260A128A1174300A128A11C8260A1290
:100E58008A1172300A128A11C8260A128A116F3052
:100E68000A128A11C8260A128A116E300A128A11C9
:100E7800C8260A128A110A300A128A11C8260A12CA
:100E88008A110D300A128A11C8260A128A115030A6
:100E98000A128A11C8260A128A1172300A128A1195
:100EA800C8260A128A1165300A128A11C8260A123F
:100EB8008A1173300A128A11C8260A128A117330ED
:100EC8000A128A11C8260A128A1120300A128A11B7
:100ED800C8260A128A1161300A128A11C8260A1213
:100EE8008A116E300A128A11C8260A128A117930BC
:100EF8000A128A11C8260A128A1120300A128A1187
:100F0800C8260A128A116E300A128A11C8260A12D5
:100F18008A1175300A128A11C8260A128A116D3090
:100F28000A128A11C8260A128A1162300A128A1114
:100F3800C8260A128A1165300A128A11C8260A12AE
:100F48008A1172300A128A11C8260A128A110130CF
:100F5800831203138800B02F0A128A11D4260A12AA
:100F68008A11F1007108F2007208313A0319BD2F95
:100F7800BE2FF52F7208323A0319C32FC42FF52F4D
:100F88007208333A0319C92FCA2FF52F7208343A59
:100F98000319CF2FD02FF52F7208353A0319D52F03
:100FA800D62FF52F7208363A0319DB2FDC2FF52FD1
:100FB8007208373A0319E12FE22FF52F7208383AF1
:100FC8000319E72FE82FF52F7208393A0319ED2F87
:100FD800EE2FF52F7208303A031DF32FF42FB02FA0
:100FE800F52F7208D03E831203138800B02FB02F5C
:080FF800B02F0A128A11002833
:02400E00323F3F
:00000001FF
